## 未签名例子

````hex
01000000023546300d0dcd21f14657be86c8a273d5d743e54e2914e4f677295630eca8fc930000000000ffffffff37196c90bff507c62bcd821a48869640ee9041edfe1f9927d380981b767c69c00000000000ffffffff0180841e00000000001976a9140b93009d6942cb68b5b6e3eab8938a52539b83c088ac00000000
````

|Data     |Comment
|---------|---
|01000000 |version  
|02       |TxInCount  
|3546300d0dcd21f14657be86c8a273d5d743e54e2914e4f677295630eca8fc93  |UTXO1.TxId  
|00000000 |UTXO1.Index  
|00       |UTXO1.SignatureScript  
|ffffffff |UTXO1.Sequence  
|37196c90bff507c62bcd821a48869640ee9041edfe1f9927d380981b767c69c0  |UTXO2.TxId  
|00000000 |UTXO2.Index  
|00       |UTXO2.SignatureScript  
|ffffffff |UTXO1.Sequence  
|01       |TxOutCount  
|80841e0000000000  |Value=2,000,000
|19       |PKScript Length
|76 a9    |OP_DUP OP_HASH160
|14       |OP_0
|0b93009d6942cb68b5b6e3eab8938a52539b83c0  |Address
|88 ac    |OP_EQUALVERIFY OP_CHECKSIG
|00000000 |LockTime  

## 已签名例子

````hex
020000000254f72b2a1acb2c3ed00381f83106e48d45fec1d2992743afaec0365043f3671f0000000017160014260c59be29c684e1a477999965a293938b990b62feffffff058ef20dd1ccab9d575d671315daefd4effcb220fdfe59542d24c2884053c4f3010000001716001460c5284ae8ce670eceb063418e3630ce7e33678dfeffffff0260a61c000000000017a914d6318f1b6b65b1d2d1dbde7b08ea8152726224a08740420f00000000001976a9140c8da7439d4a04dafde5ddb47feb94e09b8dbf5888aca6251600
````

|Data     |Comment
|---------|---
|02000000 |version
|02       |TxInCount
|54f72b2a1acb2c3ed00381f83106e48d45fec1d2992743afaec0365043f3671f |UTXO1.TxId
|00000000 |UTXO1.Index
|17160014260c59be29c684e1a477999965a293938b990b62 |UTXO1.SignatureScript
|feffffff |UTXO1.Sequence
|058ef20dd1ccab9d575d671315daefd4effcb220fdfe59542d24c2884053c4f3 |UTXO2.TxId
|01000000 |UTXO2.Index
|1716001460c5284ae8ce670eceb063418e3630ce7e33678d |UTXO2.SignatureScript
|feffffff |UTXO2.Sequence
|02       |TxOutCount
|60a61c0000000000  |Out1.value
|17       |Out1.PkScript Length
|a9 14    |OP_HASH160 0x14
|d6318f1b6b65b1d2d1dbde7b08ea8152726224a0  |Address
|87       |OP_EQUAL
|40420f0000000000  |Out2.value
|19       |Out2.PkScript Length
|76 a9 14 |OP_DUP OP_HASH160 0x14
|0c8da7439d4a04dafde5ddb47feb94e09b8dbf58  |Address
|88ac     |OP_EQUALVERIFY OP_CHECKSIG
|a6251600 |LockTime
