## 未签名例子

````hex
01000000023546300d0dcd21f14657be86c8a273d5d743e54e2914e4f677295630eca8fc930000000000ffffffff37196c90bff507c62bcd821a48869640ee9041edfe1f9927d380981b767c69c00000000000ffffffff0180841e00000000001976a9140b93009d6942cb68b5b6e3eab8938a52539b83c088ac00000000
````

|Data     |Comment
|---------|---
|01000000 |version  
|02       |TxInCount  
|3546300d0dcd21f14657be86c8a273d5d743e54e2914e4f677295630eca8fc93  |UTXO1.TxId  
|00000000 |UTXO1.Index  
|00       |UTXO1.SignatureScript  
|ffffffff |UTXO1.Sequence  
|37196c90bff507c62bcd821a48869640ee9041edfe1f9927d380981b767c69c0  |UTXO2.TxId  
|00000000 |UTXO2.Index  
|00       |UTXO2.SignatureScript  
|ffffffff |UTXO1.Sequence  
|01       |TxOutCount  
|80841e0000000000  |Value=2,000,000
|19       |PKScript Length
|76 a9 14 |OP_DUP OP_HASH160 PUSHDATA(20)
|0b93009d6942cb68b5b6e3eab8938a52539b83c0  |Address
|88 ac    |OP_EQUALVERIFY OP_CHECKSIG
|00000000 |LockTime

````
UTXO1 PrevPkScript =
OP_DUP OP_HASH160 PUSHDATA(20)
b5407cec767317d41442aab35bad2712626e17ca
OP_EQUALVERIFY OP_CHECKSIG  
````

修改 TxIn1 并取 Hash 后签名，得到  

`3045022100c435eb458b295381d6e1f489b8683d1b10ecad0a7691949a4ae7ffee74bd22ae022031e47b9ebed5b90f6d51cd05e6f53bdc59f5d6d754aff14a88a6e8659b5fdad501`

这个地址的公钥是

`038cc8c907b29a58b00f8c2590303bfc93c69d773b9da204337678865ee0cafadb`

````TxIn
TxIn1.SignatureScript =
PUSHDATA(72)
[3045022100c435eb458b295381d6e1f489b8683d1b10ecad0a7691949a4ae7ffee74bd22ae022031e47b9ebed5b90f6d51cd05e6f53bdc59f5d6d754aff14a88a6e8659b5fdad501]
PUSHDATA(33)
[038cc8c907b29a58b00f8c2590303bfc93c69d773b9da204337678865ee0cafadb]
````

````
UTXO2 PrevPkScript =
OP_DUP OP_HASH160 PUSHDATA(20)
b5407cec767317d41442aab35bad2712626e17ca
OP_EQUALVERIFY OP_CHECKSIG  
````

修改 TxIn2 并取 Hash，然后签名，得到

`30440220196bce75f0a25ac8afa7218aefc86cba3924845450f3d311c89e9c2a3438a99c0220230bed598a610be971ca49690f4b42ac2acfa80c09d4cbabd278b03c824af14501`

这个地址的公钥是

`038cc8c907b29a58b00f8c2590303bfc93c69d773b9da204337678865ee0cafadb`

````TxIn
TxIn2.SignatureScript =
PUSHDATA(71)
[30440220196bce75f0a25ac8afa7218aefc86cba3924845450f3d311c89e9c2a3438a99c0220230bed598a610be971ca49690f4b42ac2acfa80c09d4cbabd278b03c824af14501]
PUSHDATA(33)
[038cc8c907b29a58b00f8c2590303bfc93c69d773b9da204337678865ee0cafadb]
````

## 已签名例子

````hex
020000000254f72b2a1acb2c3ed00381f83106e48d45fec1d2992743afaec0365043f3671f0000000017160014260c59be29c684e1a477999965a293938b990b62feffffff058ef20dd1ccab9d575d671315daefd4effcb220fdfe59542d24c2884053c4f3010000001716001460c5284ae8ce670eceb063418e3630ce7e33678dfeffffff0260a61c000000000017a914d6318f1b6b65b1d2d1dbde7b08ea8152726224a08740420f00000000001976a9140c8da7439d4a04dafde5ddb47feb94e09b8dbf5888aca6251600
````

|Data     |Comment
|---------|---
|02000000 |version
|02       |TxInCount
|54f72b2a1acb2c3ed00381f83106e48d45fec1d2992743afaec0365043f3671f |UTXO1.TxId
|00000000 |UTXO1.Index
|17160014260c59be29c684e1a477999965a293938b990b62 |UTXO1.SignatureScript
|feffffff |UTXO1.Sequence
|058ef20dd1ccab9d575d671315daefd4effcb220fdfe59542d24c2884053c4f3 |UTXO2.TxId
|01000000 |UTXO2.Index
|1716001460c5284ae8ce670eceb063418e3630ce7e33678d |UTXO2.SignatureScript
|feffffff |UTXO2.Sequence
|02       |TxOutCount
|60a61c0000000000  |Out1.value
|17       |Out1.PkScript Length
|a9 14    |OP_HASH160 PUSHDATA(20)
|d6318f1b6b65b1d2d1dbde7b08ea8152726224a0  |Address
|87       |OP_EQUAL
|40420f0000000000  |Out2.value
|19       |Out2.PkScript Length
|76 a9 14 |OP_DUP OP_HASH160 PUSHDATA(20)
|0c8da7439d4a04dafde5ddb47feb94e09b8dbf58  |Address
|88ac     |OP_EQUALVERIFY OP_CHECKSIG
|a6251600 |LockTime
